:1000000008308A0000280000FF00030E8301A100D1
:100010000A08A0008A010408A2007708A300780853
:10002000A4007908A5007A08A60003170D08031399
:10003000A70003170F080313A80003170C080313E6
:10004000A90003170E080313AA00831383120B1EC3
:100050002B288B1850288B1E2F280B195328220869
:1000600084002308F7002408F8002508F900260872
:10007000FA00270803178D000313280803178F00C1
:100080000313290803178C0003132A0803178E0093
:10009000031320088A00210E8300FF0E7F0E090043
:1000A0008A110A12F9298A110A12712A8E30F70070
:1000B0007408F8007308F900FA01F808031D6A28AB
:1000C0007908F800F9010830F702F808031D6A28DA
:1000D000F70172280310F81B7128F90DF80DF703CA
:1000E0006A28F813080073080319F2288316A00081
:1000F0007B08031D7D288312F228A00703188B2894
:100100007F30A002031886288312F228031D8A2854
:100110008312F22891288130A007031C91288312B2
:10012000F2282008F700F801F901FA017408A40088
:10013000A4177508A3007608A2001830A000A1013A
:10014000221CBA287E08FA07031CAC28F90A031DF2
:10015000AC28F80A0319A1177D08F907031CB32876
:10016000F80A0319A1177C08F500F5177508F807B8
:100170000318A117A10DF80CF90CFA0CA40CA30C90
:10018000A20C0310A00B9F280130F707031CCA28FC
:100190008312F228F81BD428A40DFA0DF90DF80DDE
:1001A000F70BD4288312F228A41FE728FA0A031DAC
:1001B000E728F90A031DE728F80A031DE728F80CC9
:1001C000F90CFA0CF70A031DE7288312F2287408C9
:1001D000A1007C08A106A11FEF28F817F728F81343
:1001E000F7288312F701F801F901FA018316831247
:1001F00008006C080319D3298316A4007008031D96
:1002000003298312D329A402031C0D297F30A407DC
:10021000031C0C298312D32917298130A402031847
:1002200013298312D329031D17298312D3292408E4
:10023000F700F801F901FA01A30183126D08831692
:10024000A200A21783126E088316A10083126F0802
:100250008316A0001930A4007308A00203184029D7
:100260000130A10203184029A20203184029A30269
:1002700003184029A30AA20AA10A7308A007722939
:100280007208A10203185B290130A20203185B293E
:10029000A30203185B29A30AA20A7208A107730824
:1002A000A007031C7229A10A031D7229A20A031DBB
:1002B0007229A30A722971088038A20203187129D1
:1002C0000130A30203187129A30A71088038A2071C
:1002D0007208A107031C4F29A20A031D4F29A30A74
:1002E0004F297A14A40B752980290310A00DA10DA4
:1002F000A20DA30D0310FA0DF90DF80DA50D2C2973
:10030000251C88290310F80CF90CFA0CA50C8C2973
:10031000F70B8C298312D329A51BB5290310A00D37
:10032000A10DA20DA30D7308A0020318A12901308D
:10033000A1020318A129A2020318A129A302031CE8
:10034000C6297208A1020318AC290130A2020318C1
:10035000AC29A302031CC62971088038A202031825
:10036000B5290130A302031CC629FA0A031DC629B8
:10037000F90A031DC629F80A031DC629F70A031D39
:10038000C3298312D329F80CF90CFA0C83126D08D7
:100390008316A4007108A406A41FD029F817D82931
:1003A000F813D8298312F701F801F901FA0183162D
:1003B000831208008E30F7007308F7027408F90002
:1003C0007508F800F917F7080319F1290310F9085F
:1003D000031DED29F8080319F129F90CF80CF70BA6
:1003E000E629F41FF829F809F909F80A0319F90AA6
:1003F00008002D08E7002C08E6006708F4006608EE
:10040000F30056207A08F6007908F5007808F40021
:100410007708F3000A30FE00D730FD002330FC00DF
:100420008130FB007320EF014030EE001C30ED0006
:100430008C30EC007A08F3007908F2007808F100BB
:100440007708F000F9207A08F6007908F5007808B6
:10045000F4007708F300DA217908AF007808AE00DD
:100460002F08F4002E08F3005620F601F501203085
:10047000F4008130F3007A08FE007908FD00780866
:10048000FC007708FB0073207A08EB007908EA008B
:100490007808E9007708E8006B08F6006A08F500BC
:1004A0006908F4006808F300DA21AF017808AE00AB
:1004B0002E08F8002F08F9007908AF007808AE0080
:1004C0004918672A4914831601136A2A83124910AE
:1004D000831601178312AD01AC018B108A110A1229
:1004E0002F282D08023C03187E2AFF3A031D7C2A80
:1004F0002C08843C03187E2AAF01AE01AC0A031914
:10050000AD0A0B118A110A122F2865180D0500007B
:100510008C216F39F4302021F234E730E43269392C
:10052000EF390A1020102010201020102010F6188B
:100530002E1800000C2B6536EF31693261326510E0
:10054000A53A0000C3376E3A61326F39A012EC3A17
:1005500020000C3B6536EF31693261326510A53AF7
:100560000A10F337E23200010C3B6536EF31693295
:1005700061326510A53A0A10E432F33165000C3B94
:100580006536EF31693261326510A53A0A10EC34F4
:10059000ED34F432A0346E336539E93772000C3B28
:1005A0006536EF31693261326510A53A0A10E432DE
:1005B000F33165000C2B6536EF316932613265101D
:1005C000A53A0001C3376E3AE133E536A012EC3AA2
:1005D0002000D301530803178D0083168C130C14CD
:1005E00083120C080313D10001305307D4005408C0
:1005F00003178D0083168C130C1483120C0803133D
:10060000D2005208D000CF015108CF044F08F800A3
:100610005008F9008A150A122628593084008313DD
:1006200000080319212B0130F800F701F70B162BF6
:10063000F80B152B4A30F700F70B1C2B1F2B800BE8
:10064000132B0800600EF039F7000F30080577040F
:100650008800000008142C2B081008000808F70078
:10066000080E0F39F80008008316081088100811CA
:10067000831288100F3083160805F0388800831223
:1006800008150000081400002E237808E000081068
:100690000000081400002E237808DF0008100F3037
:1006A0008316080588008312600EF700F030F70506
:1006B00077085F04F8007808DF00DF1B3A2B5D1C29
:1006C00088105D18881400000811000008105E0EE4
:1006D000DF000F30DF055F08E00022235E080F39DE
:1006E000DF00E000222308002830D0000C30D100C9
:1006F0000130D2000630D3000810881008110F30E6
:100700008316080588000810881008110F3083121E
:10071000D9000D230130CF004F08033C031C982B58
:100720000330E00022230530D9000D23CF0A8C2BA3
:100730000230E00022230530D9000D23CF014F08FD
:10074000033C031CAF2B50304F0784008313000879
:10075000D400DD015408DE003423CF0A9F2B8A1514
:100760000A1232285A0BB52BB82B4030DB00B92BBC
:10077000DB0101305902DB075B088038DC00DD015A
:100780005C08DE00342308005808073A0319D22B0E
:100790000B3A0319D72B063A0319DF2B023A031938
:1007A000E52BEA2B0130D900DA00B223EF2BDD0173
:1007B0000130DE0034230230D9000D23EF2B01304D
:1007C000D9000230DA00B223EF2BDD011030DE0059
:1007D0003423EF2B0130DD005808DE0034230800FD
:1007E0000B08CF008B13831603178C170C14000013
:1007F000000083120313CF1B8B1703170C087F39DC
:100800000319442C0313CF0003170D080313D00062
:1008100003170F080313D1004F08D800C423500852
:1008200003178D000313510803178F0003130B08E0
:10083000D2008B13831603178C170C1400000000D2
:1008400083120313D21B8B1703170C0D0E0D7F3968
:100850000319442C0313CF0003170D080313D00012
:1008600003170F080313D1004F08D800C423500802
:1008700003178D000313510803178F008D0A031906
:100880008F0A0313F02B0317031308000030F8003E
:100890001F08C73978049F001F151F194D2C1E080B
:1008A000CF00AB018B1BAB178B13F4014F08F30088
:1008B0005620AB1B8B17AB018B1BAB178B13C930AF
:1008C000F600C830F5004830F4007D30F3007A08B7
:1008D000FE007908FD007808FC007708FB00732013
:1008E000AB1B8B177A08D3007908D2007808D100A7
:1008F0007708D000AB018B1BAB178B135308F600A6
:100900005208F5005108F4005008F300DA21AB1B3F
:100910008B177808CF004F08F8008A150A1298281C
:10092000530855068039D700D31F9B2CD209D30911
:10093000D20A0319D30AD51FA22CD409D509D40A87
:100940000319D50A1030D600F701FA01D30CD20CE6
:10095000031CB02C5408F7070318FA0A5508FA07C5
:10096000FA0CF70CF90CF80CD60BA62CD71FBD2CE3
:10097000F809F909F80A0319F90A08000A30CF0042
:100980002E08C60046084202FA01F700F71BFA03D8
:10099000B2007A08B3003308D3003208D200350819
:1009A000D5003408D40090247908BB007808BA0038
:1009B0003308D3003208D2003708D5003608D400F7
:1009C00090247808BC0779080318790FBD074608FA
:1009D0004702D100D3015108D200D21BD3033908FA
:1009E000D5003808D40090247908BF007808BE00EC
:1009F0004608C7003C083A07D0003B08D1003D0834
:100A000003183D0FD1073E085007C0005108C10030
:100A10003F0803183F0FC107C51B122D4F084502A1
:100A20000318142D4F08C50042084007D0004108A4
:100A3000D1000318D10AFA014508F700F71BFA03A1
:100A4000F800D11F262DFA1F322D282DFA1B342D28
:100A500051087A02031C342D031D322D78085002F0
:100A60000318342D0130C50242084007D000410868
:100A7000D1000318D10AFA014508F700F71BFA0361
:100A8000F800FA1F462DD11F512D482DD11B522D94
:100A90007A085102031C522D031D512D5008780273
:100AA000031CC50AC51B5A2D4508633C03185A2D63
:100AB0006430C500C51B5F2D4508003C0318C50107
:100AC0008A150A12A228AB018B1BAB178B13F401FA
:100AD0004408F3005620AB1B8B177A08D70079081F
:100AE000D6007808D5007708D400AB018B1BAB1774
:100AF0008B135708EF005608EE005508ED00540818
:100B0000EC00F301F2014830F1008530F000F920EB
:100B1000AB1B8B177A08D7007908D6007808D50068
:100B20007708D400D9014F08D800D81BD9038E30DC
:100B3000F7005908F8005808F900FA01D91FA52D47
:100B4000F809F909F90A0319F80AF808031DB22D82
:100B50007908F800F9010830F702F808031DB22DF2
:100B6000F701BB2D0310F81BB92DF90DF80DF70394
:100B7000B22DD91FF813AB018B1BAB178B13570882
:100B8000F6005608F5005508F4005408F3007A08FA
:100B9000FE007908FD007808FC007708FB00732050
:100BA000AB1B8B177A08D3007908D2007808D100E4
:100BB0007708D0005008F7005108F8005208F900F3
:100BC0005308FA008A150A12A7284A144A088316FD
:100BD00087008312071CEE2DB101B0018316891422
:100BE0008312891CFC2DCD08031DF92DB00A0319B1
:100BF000B10A0130CD00FD2DCD018A150A12BD28A4
:100C00000B08D0008B13831603178C170C140000ED
:100C1000000083120313D01B8B170318372E031702
:100C20000C087F390313D00003170D080313D100FC
:100C300003170F080313D2005008D800C42351082B
:100C400003178D000313520803178F0003130B08BB
:100C5000D3008B13831603178C170C1400000000AD
:100C600083120313D31B8B17CF0B372E562E03176C
:100C70000C0D0E0D7F390313D00003170D0803135D
:100C8000D10003170F080313D2005008D800C42363
:100C9000510803178D000313520803178F008D0AA4
:100CA00003198F0A03100313CF0B002E08005208FC
:100CB000F801510203185F2E5108F7006B2EF7015F
:100CC0000830D300D10DF70D520877020318F70052
:100CD000F80DD30B622E0800CE0A4E08063C031D09
:100CE000312FCE010130D900DA00B223DA300317F8
:100CF0008D0002308F0003100C300313CF0000264C
:100D00004208CF001B30D0004F08D1006430D20021
:100D100057267708CF0078083030031D962ED01C58
:100D20009D2ED0199D2E501A2030992ED011501280
:100D30005014F8077808D800C4234F08D1000A30AF
:100D4000D20057267708CF0078083030031DAE2E2A
:100D5000D019B22E501CB22E501A2030F807780845
:100D6000D800C4233030CF074F08D800C423013047
:100D7000D9000230DA00B223E23003178D000230CE
:100D80008F00031009300313CF00002610308400B9
:100D90003108D0003008CF00D7010408D600571022
:100DA000831B5714500EF038D200D207E23ED30016
:100DB000323ED50050080F39D307D307D507E93E97
:100DC000D400D407D4074F0E0F39D407D507D40D5C
:100DD000D50DD509D50D4F080F39D507D20D0730E0
:100DE000D1000A30D507D403031CF22ED407D30355
:100DF000031CF62ED307D203031CFA2ED207D1030D
:100E0000031CFE2E51308400831307305605561301
:100E1000840755300402031956170008F700031D14
:100E2000192F561B192F561A2B2FD619192F203070
:100E30001C2FD61556123030F707D0010408CF000A
:100E40005010831B50147708D800C4234F08840027
:100E5000831350188317840A561F092F2030D80097
:100E6000C4238A150A12C928051E472F8518472F43
:100E70000130C8004B08950083160911831209152B
:100E80004C084B020318462F0530CB07792F851EDF
:100E9000562F0519562F0230C8004B0895004C08F4
:100EA0004B020318552F0530CB07792F83160914F1
:100EB0008312091C692F851D692F0519692FD00818
:100EC0000319C80183160911831209114F089500EF
:100ED000792F9501C501480B792F0230D10096304A
:100EE000D9000D23D10B6F2FC8018316091183126E
:100EF00009118A150A12D028D3014F08D1005008D1
:100F0000D2000B08F7008B13530803178D0003134F
:100F1000510803178C0083168C130C1555308D0067
:100F2000AA308D008C148C18932F0C117708831223
:100F300003138B0401305307D4000B08F7008B1305
:100F4000540803178D000313520803178C008316EF
:100F50008C130C1555308D00AA308D008C148C1814
:100F6000AF2F0C117708831203138B044A144A081D
:100F7000831687008312071CEC2F0B08F7008B13D6
:100F8000530803178D008C0183168C130C155530F4
:100F90008D00AA308D008C148C18CC2F0C11770882
:100FA000831203138B0401305307D4000B08F7009E
:100FB0008B13540803178D008C0183168C130C15AA
:100FC00055308D00AA308D008C148C18E52F0C1133
:0E0FD0007708831203138B048A150A12DC289B
:1010000003081F398300B5011E30B400B701B601D3
:10101000B901B8000530C200C301A830C400C50141
:101020003230C6005030C700C8014910FF30CA0036
:10103000CB019630CC00CD01CE0183161F149F1436
:101040001F159F1183138A118312E92A8A157908C3
:10105000B1007808B0000A30D9008A110D238A1532
:101060008A11742B8A150130D900DA008A11B22353
:101070008A1583160108C7390938810083124A117D
:101080004A0883168700831207110C30970000303E
:10109000F800043892007C30831692008312950188
:1010A00083161F109F141F159F1583121F139F1364
:1010B00083169F1383121F140B16831601170C142B
:1010C00083128B16C0308B040F30F7008101813002
:1010D000840083130008F03907388000640000089A
:1010E000F739F719F03977048000853003178D0040
:1010F00002308F008A110313F0238A153230D90091
:101100008A110D238A15883003178D0002308F0055
:101110008A110313F0238A150230CF00FA30D90068
:101120008A110D238A15CF0B8E2864008A11462C54
:101130008A157808C200C208031DA028C301C50192
:101140008A11BE2C8A154508CF008A11632D8A1595
:10115000AB018B1BAB178B137A08F6007908F500EF
:101160007808F4007708F3008A11DA218A15AB1B9E
:101170008B177808C3008A11E52D8A154A144A088E
:10118000831687008312071CC728B101B0018A119A
:101190006C2E8A154308CF004208D0008A11342FE4
:1011A0008A150A30D9008A110D238A153108D0001A
:0E11B0003008CF008A117C2F8A159528630025
:02400E00353F3C
:00000001FF
;PIC16F877
;CRC=D541  CREATED="11-jun-23 09:39"
