:1000000008308A0073280000FF00030E8301A1005E
:100010000A08A0008A010408A2007708A300780853
:10002000A4007908A5007A08A60003170D08031399
:10003000A70003170F080313A80003170C080313E6
:10004000A90003170E080313AA00831383120B1EC3
:100050002B288B1850288B1E2F280B195328220869
:1000600084002308F7002408F8002508F900260872
:10007000FA00270803178D000313280803178F00C1
:100080000313290803178C0003132A0803178E0093
:10009000031320088A00210E8300FF0E7F0E090043
:1000A0008A110A12F5298A110A126D2A8E30F70078
:1000B0006F08F8006E08F900FA01F808031D6A28B5
:1000C0007908F800F9010830F702F808031D6A28DA
:1000D000F70172280310F81B7128F90DF80DF703CA
:1000E0006A28F81308006E080319F6288316A00082
:1000F0007208031D7D288312F628A00703188B2899
:100100007F30A002031886288312F628031D8A2850
:100110008312F62891288130A007031C91288312AE
:10012000F6282008F700F801F901FA0183126F0898
:100130008316A400A4177008A3007108A200183049
:10014000A000A101221CBC287508FA07031CAE28D8
:10015000F90A031DAE28F80A0319A1177408F90754
:10016000031CB528F80A0319A1177308F000F0174B
:100170007008F8070318A117A10DF80CF90CFA0C78
:10018000A40CA30CA20C0310A00BA1280130F707AC
:10019000031CCC288312F628F81BD628A40DFA0DD0
:1001A000F90DF80DF70BD6288312F628A41FE928BD
:1001B000FA0A031DE928F90A031DE928F80A031DB4
:1001C000E928F80CF90CFA0CF70A031DE928831248
:1001D000F62883126F088316A1007308A106A11FD9
:1001E000F328F817FB28F813FB288312F701F8010E
:1001F000F901FA0183168312080073080319CF2945
:100200008316A4007B08031D07298312CF29A402AB
:10021000031C11297F30A407031C10298312CF2946
:100220001B298130A402031817298312CF29031D2B
:100230001B298312CF292408F700F801F901FA01DC
:10024000A3017408A200A2177508A1007608A000F7
:100250001930A4007E08A00203183E290130A10233
:1002600003183E29A20203183E29A30203183E29BF
:10027000A30AA20AA10A7E08A00770297D08A1028C
:10028000031859290130A20203185929A30203189F
:100290005929A30AA20A7D08A1077E08A007031C0A
:1002A0007029A10A031D7029A20A031D7029A30A3F
:1002B00070297C088038A20203186F290130A3023C
:1002C00003186F29A30A7C088038A2077D08A107BC
:1002D000031C4D29A20A031D4D29A30A4D297A1496
:1002E000A40B73297E290310A00DA10DA20DA30D4F
:1002F0000310FA0DF90DF80DA50D2A29251C8629E4
:100300000310F80CF90CFA0CA50C8A29F70B8A29B2
:100310008312CF29A51BB3290310A00DA10DA20D97
:10032000A30D7E08A00203189F290130A102031823
:100330009F29A20203189F29A302031CC4297D0838
:10034000A1020318AA290130A2020318AA29A302B4
:10035000031CC4297C088038A2020318B329013089
:10036000A302031CC429FA0A031DC429F90A031DA8
:10037000C429F80A031DC429F70A031DC1298312E1
:10038000CF29F80CF90CFA0C7408A4007C08A40618
:10039000A41FCC29F817D429F813D4298312F70104
:1003A000F801F901FA018316831208008E30F70074
:1003B0006E08F7026F08F9007008F800F917F708DF
:1003C0000319ED290310F908031DE929F808031999
:1003D000ED29F90CF80CF70BE229EF1FF429F809C5
:1003E000F909F80A0319F90A08002D08E9002C0890
:1003F000E8006908EF006808EE0056207A08F1006E
:100400007908F0007808EF007708EE000A30F50070
:10041000D730F4002330F3008130F2007320F6016E
:100420004030F5001C30F4008C30F3007A08FE00F8
:100430007908FD007808FC007708FB00FD207A08A9
:10044000F1007908F0007808EF007708EE00D62177
:100450007908AF007808AE002F08EF002E08EE00F4
:100460005620F101F0012030EF008130EE007A08D3
:10047000F5007908F4007808F3007708F20073209B
:100480007A08ED007908EC007808EB007708EA00BC
:100490006D08F1006C08F0006B08EF006A08EE00D0
:1004A000D621AF017808AE002E08F8002F08F90019
:1004B0007908AF007808AE004B18632A4B148316F6
:1004C0000113662A83124B10831601178312AD01A4
:1004D000AC018B108A110A122F282D08023C031838
:1004E0007A2AFF3A031D782A2C08843C03187A2ABA
:1004F000AF01AE01AC0A0319AD0A0B118A110A1241
:100500002F2865180D0500008C216F39F43020214B
:10051000F234E730E4326939EF390A102010201044
:1005200020102010201076192E1800000C2B653694
:10053000EF31693261326510A53A0000C3376E3A77
:1005400061326F39A012EC3A20000C3B6536EF3176
:10055000693261326510A53A0A10F337E2320001C0
:100560000C3B6536EF31693261326510A53A0A10ED
:10057000E432F33165000C3B6536EF3169326132AC
:100580006510A53A0A10EC34ED34F432A0346E3321
:100590006539E93772000C3B6536EF3169326132FB
:1005A0006510A53A0A10E432F33165000C2B65366C
:1005B000EF31693261326510A53A0001C3376E3AF6
:1005C000E133E536A012EC3A2000D50155080317B7
:1005D0008D0083168C130C1483120C080313D300A4
:1005E00001305507D600560803178D0083168C136B
:1005F0000C1483120C080313D4005408D200D10148
:100600005308D1045108F8005208F90008005B3083
:1006100084008313000803191B2B0130F800F70135
:10062000F70B102BF80B0F2B4A30F700F70B162B9C
:10063000192B800B0D2B0800620EF039F7000F30DC
:1006400008057704880000000814262B081008000D
:100650000808F700080E0F39F80008008316081084
:1006600088100811831288100F3083160805F0389F
:100670008800831208150000081400002823780859
:10068000E200081000000814000028237808E100A8
:1006900008100F308316080588008312620EF700D9
:1006A000F030F70577086104F8007808E100E11BF5
:1006B000342B5F1C88105F1888140000081100009C
:1006C0000810600EE1000F30E1056108E2001C2314
:1006D00060080F39E100E2001C2308002830D20036
:1006E0000C30D3000130D4000630D500081088103B
:1006F00008110F30831608058800081088100811AB
:100700000F308312DB0007230130D1005108033C76
:10071000031C922B0330E2001C230530DB0007236F
:10072000D10A862B0230E2001C230530DB000723B0
:10073000D1015108033C031CA92B523051078400FE
:1007400083130008D600DF015608E0002E23D10AEB
:10075000992B8A150A12A5285C0BAF2BB22B4030BF
:10076000DD00B32BDD0101305B02DD075D08803861
:10077000DE00DF015E08E0002E2308005A08073A79
:100780000319CC2B0B3A0319D12B063A0319D92B99
:10079000023A0319DF2BE42B0130DB00DC00AC2331
:1007A000E92BDF010130E0002E230230DB000723BC
:1007B000E92B0130DB000230DC00AC23E92BDF0148
:1007C0001030E0002E23E92B0130DF005A08E00052
:1007D0002E2308000B08D1008B13831603178C17E8
:1007E0000C140000000083120313D11B8B17031796
:1007F0000C087F3903193E2C0313D10003170D0891
:100800000313D20003170F080313D3005108DA00B3
:10081000BE23520803178D000313530803178F00DC
:1008200003130B08D4008B13831603178C170C14B7
:100830000000000083120313D41B8B1703170C0D49
:100840000E0D7F3903193E2C0313D10003170D0839
:100850000313D20003170F080313D3005108DA0063
:10086000BE23520803178D000313530803178F008C
:100870008D0A03198F0A0313EA2B031703130800C9
:100880000030F8001F08C73978049F000230F700D5
:10089000F70B482C4B2C00001F151F194D2C8316ED
:1008A0001E088312D1001E08D2005208D40051083D
:1008B000D300D6010A30D5001030D700F701FA0175
:1008C000D40CD30C031C6A2C5508F7070318FA0A3A
:1008D0005608FA07FA0CF70CF90CF80CD70B602C39
:1008E0007908D2007808D1005208D4005108D3000A
:1008F000D6016630D500F801F901F701FA01560872
:10090000031D852C550803199F2C1030D7000310A8
:10091000D30DD40DF70DFA0D56087A02031D922C53
:1009200055087702031C9B2C5508F702031CFA0399
:100930005608FA020314F80DF90DD70B872C790825
:10094000D2007808D1005108F8008A150A1212293D
:10095000550857068039D900D51FB32CD409D509BD
:10096000D40A0319D50AD71FBA2CD609D709D60A33
:100970000319D70A1030D800F701FA01D50CD40CAE
:10098000031CC82C5608F7070318FA0A5708FA0779
:10099000FA0CF70CF90CF80CD80BBE2CD91FD52C7F
:1009A000F809F909F80A0319F90A08000A30D10010
:1009B0002E08C60046084202FA01F700F71BFA03A8
:1009C000B2007A08B3003308D5003208D4003508E5
:1009D000D7003408D600A8247908BB007808BA00EC
:1009E0003308D5003208D4003708D7003608D600BF
:1009F000A8247808BC0779080318790FBD074608B2
:100A00004702D300D5015308D400D41BD5033908BD
:100A1000D7003808D600A8247908BF007808BE009F
:100A20004608C7003C083A07D2003B08D3003D08FF
:100A300003183D0FD3073E085207C0005308C100FA
:100A40003F0803183F0FC107C51B2A2D5108450257
:100A500003182C2D5108C50042084007D200410858
:100A6000D3000318D30AFA014508F700F71BFA036D
:100A7000F800D31F3E2DFA1F4A2D402DFA1B4C2D96
:100A800053087A02031C4C2D031D4A2D780852028C
:100A900003184C2D0130C50242084007D20041081E
:100AA000D3000318D30AFA014508F700F71BFA032D
:100AB000F800FA1F5E2DD31F692D602DD31B6A2D00
:100AC0007A085302031C6A2D031D692D520878020F
:100AD000031CC50AC51B722D4508633C0318722D03
:100AE0006430C500C51B772D4508003C0318C501BF
:100AF0008A150A121C29AB018B1BAB178B13EF0154
:100B00004408EE005620AB1B8B177A08D9007908F1
:100B1000D8007808D7007708D600AB018B1BAB173D
:100B20008B135908F6005808F5005708F4005608CA
:100B3000F300FE01FD014830FC008530FB00FD2084
:100B4000AB1B8B177A08D9007908D8007808D70032
:100B50007708D600DB015108DA00DA1BDB038E30A0
:100B6000F7005B08F8005A08F900FA01DB1FBD2DF9
:100B7000F809F909F90A0319F80AF808031DCA2D3A
:100B80007908F800F9010830F702F808031DCA2DAA
:100B9000F701D32D0310F81BD12DF90DF80DF70334
:100BA000CA2DDB1FF813AB018B1BAB178B13590836
:100BB000F1005808F0005708EF005608EE007A08D8
:100BC000F5007908F4007808F3007708F200732044
:100BD000AB1B8B177A08D5007908D4007808D300AE
:100BE0007708D2005208F7005308F8005408F900BB
:100BF0005508FA008A150A1221294C144C0883164C
:100C00008700831207180F2E3108743C0318112E29
:100C1000FF3A031D0F2E3008303C0318112EB1018E
:100C2000B001831689148312891C222ECF08031D5C
:100C30001C2EB00A0319B10A0330DB000723013070
:100C4000CF00232ECF018A150A1237290B08D200B4
:100C50008B13831603178C170C14000000008312EB
:100C60000313D21B8B1703185D2E03170C087F3953
:100C70000313D20003170D080313D30003170F0843
:100C80000313D4005208DA00BE23530803178D0063
:100C90000313540803178F0003130B08D5008B139D
:100CA000831603178C170C14000000008312031323
:100CB000D51B8B17D10B5D2E7C2E03170C0D0E0D43
:100CC0007F390313D20003170D080313D300031752
:100CD0000F080313D4005208DA00BE235308031789
:100CE0008D000313540803178F008D0A03198F0A10
:100CF00003100313D10B262E08005408F8015302E9
:100D00000318852E5308F700912EF7010830D500FF
:100D1000D30DF70D540877020318F700F80DD50B23
:100D2000882E0800D00A5008063C031D572FD0011A
:100D30000130DB00DC00AC23D63003178D0002301D
:100D40008F0003100C300313D10026264208D10077
:100D50001B30D2005108D3006430D4007D267708C0
:100D6000D10078083030031DBC2ED21CC32ED219FE
:100D7000C32E521A2030BF2ED21152125214F8072D
:100D80007808DA00BE235108D3000A30D4007D264B
:100D90007708D10078083030031DD42ED219D82E10
:100DA000521CD82E521A2030F8077808DA00BE23D9
:100DB0003030D1075108DA00BE230130DB000230A9
:100DC000DC00AC23DE3003178D0002308F000310EF
:100DD00009300313D1002626103084003108D200D8
:100DE0003008D100D9010408D8005910831B5914C8
:100DF000520EF038D400D407E23ED500323ED70080
:100E000052080F39D507D507D707E93ED600D607D0
:100E1000D607510E0F39D607D707D60DD70DD709EC
:100E2000D70D51080F39D707D40D0730D3000A303A
:100E3000D707D603031C182FD607D503031C1C2F76
:100E4000D507D403031C202FD407D303031C242F5E
:100E500053308400831307305805581384075730E4
:100E60000402031958170008F700031D3F2F581BF1
:100E70003F2F581A512FD8193F2F2030422FD81505
:100E800058123030F707D2010408D1005210831BEA
:100E900052147708DA00BE235108840083135218D5
:100EA0008317840A581F2F2F2030DA00BE238A159B
:100EB0000A124329051E6D2F85186D2F0130C800B9
:100EC0004D08950083160911831209154E084D022D
:100ED00003186C2F0530CD079F2F851E7C2F051919
:100EE0007C2F0230C8004D0895004E084D020318B3
:100EF0007B2F0530CD079F2F831609148312091C01
:100F00008F2F851D8F2F05198F2FD2080319C80128
:100F10008316091183120911510895009F2F95011D
:100F2000C501480B9F2F0230D3009630DB0007230A
:100F3000D30B952FC80183160911831209118A1545
:040F40000A124A291E
:10100000D5015108D3005208D4000B08F7008B1308
:10101000550803178D000313530803178C0083161C
:101020008C130C1555308D00AA308D008C148C1843
:1010300017280C117708831203138B04013055070E
:10104000D6000B08F7008B13560803178D00031307
:10105000540803178C0083168C130C1555308D0023
:10106000AA308D008C148C1833280C117708831249
:1010700003138B044C144C08831687008312071C3F
:1010800070280B08F7008B13550803178D008C018F
:1010900083168C130C1555308D00AA308D008C14DE
:1010A0008C1850280C117708831203138B0401301D
:1010B0005507D6000B08F7008B13560803178D0051
:1010C0008C0183168C130C1555308D00AA308D00C1
:1010D0008C148C1869280C117708831203138B0465
:1010E0008A150A12552903081F398300B5011E30DD
:1010F000B400B701B601B901B8000530C200C301A0
:10110000A830C400C5013230C6005030C700C80145
:101110004B10FF30CC00CD017830CE00CF01D00194
:1011200083161F149F141F159F1183138A11831296
:10113000E5228A157908B1007808B0000A30DB0092
:101140008A1107238A158A116E2B8A150130DB005C
:10115000DC008A11AC238A1583160108C7390938C7
:10116000810083124C114C088316870083120711EB
:101170000C3097000030F800043892007C30831661
:1011800092008312950183161F109F141F159F153F
:1011900083121F139F1383169F1783121F140B169E
:1011A000831601170C1483128B16C0308B040F307A
:1011B000F70081018130840083130008F03907387B
:1011C000800064000008F739F719F03977048000CF
:1011D000813003178D0002308F008A110313EA2338
:1011E0008A153230DB008A1107238A1584300317F1
:1011F0008D0002308F008A110313EA238A15043010
:10120000D100E130DB008A1107238A15D10B0129B7
:101210008A11E5228A157908B1007808B0006400C7
:101220008A11402C8A157808C200C208031D1A29A9
:10123000C301C5018A11D62C8A154508D1008A112F
:101240007B2D8A15AB018B1BAB178B137A08F10032
:101250007908F0007808EF007708EE008A11D621AF
:101260008A15AB1B8B177808C3008A11FD2D8A15D0
:101270004C144C08831687008312071C4129B101C6
:10128000B0018A11922E8A154308D1004208D2007B
:101290008A115A2F8A150A30DB008A1107238A1512
:0E12A0003108D2003008D10000280F29630069
:02400E00353F3C
:00000001FF
;PIC16F877
;CRC=1D5F  CREATED="19-jul-23 23:34"
